S01400004675636B4D7953616E6974792E7372656349
S11300000C942A000C943F000C943F000C943F0085
S11300100C943F000C943F000C943F000C943F0060
S11300200C943F000C943F000C943F000C943F0050
S11300300C943F000C943F000C943F000C943F0040
S11300400C943F000C943F000C943F000C943F0030
S11300500C943F0011241FBECFE5D8E0DEBFCDBF16
S113006010E0A0E6B0E0E6E7F6E002C005900D92ED
S1130070AE3BB107D9F70E945A020C9439030C9491
S1130080000081B3816081BB81B3826081BB81B395
S1130090846081BB81B3886081BB81B38F7E81BB67
S11300A081B38F7D81BB81B38F7B81BB81B38F771C
S11300B081BB82B3806182BB82B3806282BB82B324
S11300C0806482BB82B3806882BB089560E0BDC057
S11300D082B3816082BB82B3826082BB82B384605C
S11300E082BB82B3886082BB611104C082B38E7FFD
S11300F082BB0FC0613021F482B38D7F82BB09C003
S1130100623021F482B38B7F82BB03C082B3877FCA
S113011082BB20B3207130E0329522952F702327C3
S11301203F70232790B39072892F90E0969587951E
S1130130929582958F7089279F7089279927880FB8
S1130140991F282B90B39074892F90E00024880F76
S1130150991F001C880F991F001C892F902D992727
S1130160880F991F880F991F822B20B3221F2227E3
S1130170221F30E0220F331F220F331F220F331FA1
S1130180822B8295807F20B3207130E0A9015295A3
S113019042954F7045275F70452790B39072292F81
S11301A030E036952795329522952F7023273F709E
S11301B023272423352340B3407450E00024440F04
S11301C0551F001C440F551F001C452F502D242380
S11301D0352340B3441F4427441F50E024233523D0
S11301E02130310589F120B3207130E0A901529505
S11301F042954F7045275F70452790B39072292F21
S113020030E036952795329522952F7023273F703D
S113021023272423352340B3407450E00024440FA3
S1130220551F001C440F551F001C452F502D24231F
S1130230352340B3441F4427441F50E0242335236F
S11302402130310581F604C06F5F643008F440CF7B
S11302506130D1F028F0623051F16330D9F14DC0F2
S1130260803B09F44CC018F4803731F007C0803D5E
S113027039F0803E39F002C08FE2089580E008959D
S113028088E3089587E30895803BD9F118F4803713
S113029031F007C0803D39F0803E39F002C08AE277
S11302A0089580E0089585E3089584E30895803BEC
S11302B051F118F4803731F007C0803D39F0803EA9
S11302C039F002C08DE2089580E0089582E3089534
S11302D081E30895803BC9F018F4803731F007C0FA
S11302E0803D39F0803E39F002C08BE2089580E011
S11302F0089580E3089583E4089580E0089589E3F0
S1130300089586E3089583E308958DE3089598B3EB
S11303109F7798BB88231CF498B3906898BB98B3D4
S11303209F7B98BB86FF03C098B3906498BB98B337
S11303309F7D98BB85FF03C098B3906298BB98B328
S11303409F7E98BB84FF03C088B3806188BB88B359
S1130350826088BB000088B38D7F88BB000008954D
S1130360CF93C82F88B3816088BB88B38D7F88BB47
S11303708C2F0E9487018C2F8295807F0E94870199
S1130380CF9108950F931F93CF938C01C0E007C0C2
S11303900E94B001CF5F8AE18A95F1F700C0F801AD
S11303A0EC0FF11D80818111F3CFCF911F910F913B
S11303B00895CF93C82F88B38E7F88BB88B38D7F71
S11303C088BB8C2F0E9487018C2F8295807F0E948E
S11303D08701CF91089587B3806887BB87B3806412
S11303E087BB87B3806287BB87B3806187BB87B3D2
S11303F0826087BB87B3816087BB87B3846087BB18
S113040087EA91E60197F1F700C0000088B38E7F78
S113041088BB88B38D7F88BB80E30E94870183EC0F
S113042099E00197F1F700C0000080E30E94870182
S113043092E49A95F1F700C080E30E94870182E478
S11304408A95F1F700C088E20E9487019AE19A95A3
S1130450F1F700C088E20E94D9018AE18A95F1F798
S113046000C088E00E94D9019AE19A95F1F700C092
S113047081E00E94D90187EE93E00197F1F700C073
S1130480000086E00E94D9019AE19A95F1F700C034
S11304908CE00E94D9018AE18A95F1F700C00895A1
S11304A081E00E94D90183EF91E00197F1F700C048
S11304B000000895CF93DF9300D000D01F92CDB7F2
S11304C0DEB71A821982FE01339683E0DF011D92A2
S11304D08A95E9F70E9441000E94EB0180E690E0D2
S11304E00E94C201BFE926E881E0B150204080406B
S11304F0E1F700C000000E94500287E690E00E94ED
S1130500C2019FE3ADE0B3E09150A040B040E1F7F9
S113051000C000000E945002F12C10E022E02F15D0
S113052038F40E94500286E790E00E94C201FFCF97
S11305300E946600082F833409F063C0E1E0F0E014
S1130540EC0FFD1FE10FF11D10820E94500269EBB8
S113055070E0CE0101960E943003892B61F581E899
S113056090E00E94C2018FE79AE1A6E0815090409A
S1130570A040E1F700C000000E9450028EEF8BBB48
S1130580BFEB27E289E0B15020408040E1F700C092
S1130590000080E990E00E94C2019FE7AAE1B6E072
S11305A09150A040B040E1F700C000000E9450020A
S11305B0198210E0B3CFF3948EE990E00E94C20157
S11305C02FE78AE196E0215080409040E1F700C097
S11305D000000E9450028CEA90E00E94C20183E372
S11305E08F190E94B001AFE7BAE126E0A150B040F4
S11305F02040E1F700C000000E945002198210E080
S11306008DCF8A32E1F4112309F488CF1150E1E04F
S1130610F0E0EC0FFD1FE10FF11D10820E9450026B
S113062000E00AC0E1E0F0E0EC0FFD1FE00FF11D77
S113063080810E94B0010F5F0117A0F36FCF882360
S113064009F46CCF143008F069CF0E94B001E1E0E6
S1130650F0E0EC0FFD1FE10FF11D00831F5F5ECF83
S1130660FB01DC018D91019080190110D9F3990BE4
S10906700895F894FFCF89
S113067648656C6C6F2100456E7465722050617319
S113068673776F7264004C6F636B6564204F757487
S113069600416363657373204772616E7465640019
S11306A64D6F746F722053746F707065640041638C
S11306B6636573732044656E696564005472696585
S11106C673204C6566743A20003132333400E0
S9030000FC
