S00F0000736F732D6D73672E737265634C
S11300000C942A000C943F000C943F000C943F0085
S11300100C943F000C943F000C943F000C943F0060
S11300200C943F000C943F000C943F000C943F0050
S11300300C943F000C943F000C943F000C943F0040
S11300400C943F000C943F000C943F000C943F0030
S11300500C943F0011241FBECFE5D8E0DEBFCDBF16
S113006010E0A0E6B0E0E0E7F5E002C005900D92F4
S1130070A437B107D9F70E9415010C94B6020C9469
S113008000008F929F92AF92BF92CF92DF92EF9235
S1130090FF92BC018FEF88BB072E000C880B990BD5
S11300A00E9494014B015C0120E030E04AEF54E4EB
S11300B00E9421026B017C0120E030E040E85FE314
S11300C00E945E01882324F120E03FEF4FE757E4CC
S11300D0C701B6010E941C021816ACF420E030E0FF
S11300E040E251E4C501B4010E9421020E9463016F
S11300F006C088EC90E00197F1F761507109611531
S11301007105B9F70AC0C701B6010E94630102C0B4
S113011061E070E0CB010197F1F7FF90EF90DF9081
S1130120CF90BF90AF909F908F9008958F929F92A1
S1130130AF92BF92CF92DF92EF92FF9218BABC01B6
S1130140990F880B990B0E9494014B015C0120E0EC
S113015030E04AEF54E40E9421026B017C0120E06C
S113016030E040E85FE30E945E01882324F120E050
S11301703FEF4FE757E4C701B6010E941C0218166F
S1130180ACF420E030E040E251E4C501B4010E9447
S113019021020E94630106C088EC90E00197F1F708
S11301A06150710961157105B9F70AC0C701B6013B
S11301B00E94630102C061E070E0CB010197F1F796
S11301C0FF90EF90DF90CF90BF90AF909F908F9073
S11301D008950F931F93CF93DF938C01C0E0D0E079
S11301E01CC0CE019E0121703327C0FD0AC0FE0150
S11301F0EE0FFF1FE00FF11F808191810E944100EB
S11302000BC0232B49F0880F991FF801E80FF91F41
S1130210808191810E9496002196C630D1050CF30D
S1130220DF91CF911F910F910895CF93DF93CDB7B5
S1130230DEB764970FB6F894DEBF0FBECDBF8AE079
S1130240E0E6F0E0DE01119601900D928A95E1F767
S11302508AE0EAE6F0E0DE011B9601900D928A95B1
S1130260E1F78FEF87BBCE0101960E94E90080E1A0
S113027097E205C0E8ECF0E03197F1F701970097B9
S1130280C9F7CE010B960E94E90080E197E205C010
S1130290E8ECF0E03197F1F701970097C9F7CE0148
S11302A001960E94E90080E29EE405C0E8ECF0E0DB
S11302B03197F1F701970097C9F7D5CF0E94CF0185
S11302C008F481E008950E94FB0188F09F5798F09C
S11302D0B92F9927B751B0F0E1F0660F771F881F47
S11302E0991F1AF0BA95C9F714C0B13091F00E9461
S11302F01502B1E008950C941502672F782F882712
S1130300B85F39F0B93FCCF3869577956795B39587
S1130310D9F73EF490958095709561957F4F8F4FF6
S11303209F4F0895E89409C097FB3EF490958095FB
S1130330709561957F4F8F4F9F4F9923A9F0F92FA7
S113034096E9BB279395F695879577956795B79525
S1130350F111F8CFFAF4BB0F11F460FF1BC06F5F0B
S11303607F4F8F4F9F4F16C0882311F096E911C01D
S1130370772321F09EE8872F762F05C0662371F03E
S113038096E8862F70E060E02AF09A95660F771F52
S1130390881FDAF7880F9695879597F90895990F2E
S11303A00008550FAA0BE0E8FEEF16161706E8073B
S11303B0F907C0F012161306E407F50798F0621B5C
S11303C0730B840B950B39F40A2661F0232B242B31
S11303D0252B21F408950A2609F4A140A6958FEF50
S11303E0811D811D089557FD9058440F551F59F0E4
S11303F05F3F71F04795880F97FB991F61F09F3F0E
S113040079F087950895121613061406551FF2CF36
S11304104695F1DF08C0161617061806991FF1CF86
S113042086957105610508940895E894BB276627AD
S11304307727CB0197F908950E94CF0108F48FEF35
S113044008950E9434020C94A5020E94970238F089
S11304500E949E0220F0952311F00C948E020C94BD
S1130460940211240C9416020E94F30170F3959FD8
S1130470C1F3950F50E0551F629FF001729FBB2797
S1130480F00DB11D639FAA27F00DB11DAA1F649F33
S11304906627B00DA11D661F829F2227B00DA11DE6
S11304A0621F739FB00DA11D621F839FA00D611D6C
S11304B0221F749F3327A00D611D231F849F600D8D
S11304C0211D822F762F6A2F11249F5750409AF0B6
S11304D0F1F088234AF0EE0FFF1FBB1F661F771F42
S11304E0881F91505040A9F79E3F510580F00C940D
S11304F08E020C9416025F3FE4F3983ED4F3869583
S113050077956795B795F795E7959F5FC1F7FE2BAC
S1130510880F911D9695879597F9089597F99F6788
S113052080E870E060E008959FEF80EC0895002477
S11305300A941616170618060906089500240A9444
S113054012161306140605060895092E0394000CCA
S113055011F4882352F0BB0F40F4BF2B11F460FF59
S113056004C06F5F7F4F8F4F9F4F0895F894FFCF64
S113057064006400640064006400FA006400FA002B
S10705806400FA0015
S9030000FC
