S01300004469676974616C536166652E73726563D4
S11300000C942A000C943F000C943F000C943F0085
S11300100C943F000C943F000C943F000C943F0060
S11300200C943F000C943F000C943F000C943F0050
S11300300C943F000C943F000C943F000C943F0040
S11300400C943F000C943F000C943F000C943F0030
S11300500C943F0011241FBECFE5D8E0DEBFCDBF16
S113006010E0A0E6B0E0E8E6F3E002C005900D92EF
S1130070A23AB107D9F70E945C010C94B2010C9426
S1130080000080EF81BB8FEF82BB089530E02CC06D
S1130090632F70E0AB014C5F5F4F81E090E002C0E2
S11300A0880F991F4A95E2F7809582BB000020E0F3
S11300B018C080B3422F50E090E0022E02C0959504
S11300C087950A94E2F780FD0BC0660F771F660FD1
S11300D0771F6C597F4FFB01E40FF51F8081089552
S11300E02F5F243030F33F5F343090F280E0089586
S11300F095B39F70282F207F922B95BB95B39E7F3D
S113010095BB95B3926095BB000095B39D7F95BB5D
S113011032E43A95F1F700C025B330E1839FC00182
S11301201124922F9F70892B85BB85B3826085BB78
S1130130000085B38D7F85BB83EF91E00197F1F7D4
S113014000C00000089595B39F70282F207F922B44
S113015095BB95B3916095BB95B3926095BB000038
S113016095B39D7F95BB32E43A95F1F700C025B372
S113017030E1839FC0011124922F9F70892B85BB8E
S113018085B3826085BB000085B38D7F85BB83EF1B
S113019091E00197F1F700C0000008958FEF84BB50
S11301A085EA9EE00197F1F700C0000082E00E941A
S11301B0780088E20E9478008CE00E94780086E053
S11301C00E94780081E00E94780083EF91E001971B
S11301D0F1F700C00000089581E00E94780083EFE9
S11301E091E00197F1F700C000000895CF93DF93E9
S11301F0EC0103C021960E94A30088818111FACFEB
S1130200DF91CF910895CF93DF9300D0CDB7DEB7C0
S113021090E8998390EC9A83E1E0F0E0EC0FFD1F05
S1130220E60FF11D9081890F0E9478000F900F90C6
S1130230DF91CF9108950E94A300089587B382604F
S113024087BB8FB582688FBD8EB58A618EBD8FE105
S11302509EE497BD86BD8CED95E09BBD8ABD2FEBDA
S113026087E299E0215080409040E1F700C000000F
S113027088EE93E09BBD8ABD2FE986E891E021508A
S113028080409040E1F700C000000895BC0190E078
S11302900DC0292F30E0FB01E20FF31F4081F9016B
S11302A0E05AFF4F2081421305C09F5F943088F3CA
S11302B081E0089580E00895CF93DF9300D000D0CB
S11302C0CDB7DEB78CE00E94CE000E9441000E94B0
S11302D0EC0084E790E00E94F60000E00E944600F3
S11302E0182F8823D9F361E0802F0E9403018AE24A
S11302F00E941B01E1E0F0E0EC0FFD1FE00FF11D97
S113030010830F5F043051F7CE0101960E9446011D
S1130310882391F00E94EC0084E890E00E94F600AB
S11303200E941E012FE78AE196E021508040904010
S1130330E1F700C000000FC00E94EC0083E990E0E8
S11303400E94F6002FE78AE196E021508040904019
S1130350E1F700C000000E94EC0084E790E00E94F6
S10B0360F600BBCFF894FFCFB7
S11303683132333431323341343536423738394314
S11303782A302344456E7465722050617373776F15
S113038872643A00416363657373204772616E74E3
S113039865640057726F6E672050617373776F726C
S10503A86400EB
S9030000FC
