S01300004469676974616C536166652E73726563D4
S11300000C942A000C943F000C943F000C943F0085
S11300100C943F000C943F000C943F000C943F0060
S11300200C943F000C943F000C943F000C943F0050
S11300300C943F000C943F000C943F000C943F0040
S11300400C943F000C943F000C943F000C943F0030
S11300500C943F0011241FBECFE5D8E0DEBFCDBF16
S113006010E0A0E6B0E0EAE3F3E002C005900D92F0
S1130070A43AB107D9F70E9426010C949B010C9471
S1130080000080EF87BB8FEF88BB089530E042C04B
S1130090432F50E0BA016C5F7F4F81E090E002C0D3
S11300A0880F991F6A95E2F7809588BB2AE12A9503
S11300B0F1F700C020E02BC086B3622F70E090E01F
S11300C0022E02C0959587950A94E2F780FD1EC022
S11300D08FE798E321E0815090402040E1F700C091
S11300E0000086B390E0062E02C0959587950A9489
S11300F0E2F780FFF6CF440F551F440F551F405AB7
S11301005F4FFA01E60FF71F808108952F5F2430B7
S113011098F23F5F343008F4BBCF80E0089582B397
S1130120806282BB82E08A95F1F700C082B38F7D42
S113013082BB87EC90E00197F1F700C000000895BE
S1130140CF93C82F82B38F7E82BB8C2F807F85BBD9
S11301500E948F00C295C07FC5BB0E948F008FE9AB
S11301609FE00197F1F700C00000CF910895CF936D
S1130170C82F82B3806182BB8C2F807F85BB0E9495
S11301808F00C295C07FC5BB0E948F008FE99FE09E
S11301900197F1F700C00000CF910895CF93DF934A
S11301A0EC0103C021960E94B70088818111FACF27
S11301B0DF91CF91089581E00E94A0008FE99FE034
S11301C00197F1F700C000000895662311F090E450
S11301D001C090E0890F80680E94A000089581B357
S11301E0806381BB84B3806F84BB8FE39CE90197F8
S11301F0F1F700C0000083E30E94A00082E30E94A4
S1130200A00088E20E94A0008CE00E94A00081E08F
S11302100E94A00086E00E94A000089581B38E6C25
S113022081BB82B38F7382BB82B3817F82BB08950B
S113023082B3886082BB82B3846082BB82B38D7FC9
S113024082BB089582B3817F82BB0895CF93DF93ED
S113025000D000D01F92CDB7DEB70E940E010E94DD
S1130260EF000E9441000E94DB0080E790E00E94C2
S1130270CE0061E080E00E94E50010E011C00E9421
S11302804600882369F001E0010FE1E0F0E0EC0FA3
S1130290FD1FE10FF11D80838AE20E94B700102F39
S11302A0143068F3E1E0F0E0EC0FFD1FE10FF11D05
S11302B010822FEF84E39CE0215080409040E1F7CE
S11302C000C000000E94DB006FE970E0CE010196DF
S11302D00E949201892B69F480E890E00E94CE008C
S11302E082B3806482BB82B38F7782BB0E94180181
S11302F00CC080E990E00E94CE0082B3806882BB8B
S113030082B38F7B82BB0E9422012FEF83ED90E3A7
S1130310215080409040E1F700C0000082B38F7309
S113032082BBA1CFFB01DC018D91019080190110EA
S10D0330D9F3990B0895F894FFCF58
S113033A3738392F343536783132332D43303D2B23
S113034A456E7465722050617373776F72643A00F4
S113035A416363657373204772616E746564210037
S113036A4163636573732044656E69656421003172
S107037A32333400E2
S9030000FC
